:100000000C945D000C9485000C9485000C94850084
:100010000C9485000C9485000C9485000C9485004C
:100020000C9485000C9485000C9485000C94BB0105
:100030000C9485000C9485000C9485000C9485002C
:100040000C9471010C9485000C9485000C9485002F
:100050000C9485000C9485000C9485000C9485000C
:100060000C9485000C94850000000008000201003B
:100070000003040700000000000000000000000072
:10008000250028002B0000000000240027002A0083
:10009000040404040404040402020202020203032E
:1000A0000303030301020408102040800102040836
:1000B0001020010204081020BF0311241FBECFEF3F
:1000C000D8E0DEBFCDBF11E0A0E0B1E0EEEBF7E09D
:1000D00002C005900D92A030B107D9F721E0A0E051
:1000E000B1E001C01D92A833B207E1F710E0CDE501
:1000F000D0E004C02197FE010E94D703CC35D10780
:10010000C9F70E9492020C94DD030C94000090E069
:10011000FC01EC55FF4F249180579F4FFC018491C7
:10012000882399F090E0880F991FFC01EA57FF4F50
:10013000A591B491FC01E458FF4F859194918FB73C
:10014000F894EC91E22BEC938FBF089590E0FC01C2
:10015000E859FF4F2491FC01EC55FF4F3491FC010D
:10016000E057FF4FE491EE23C9F0222339F023300A
:1001700001F1A8F4213019F1223029F1F0E0EE0F5D
:10018000FF1FE458FF4FA591B4918FB7F894EC91FD
:10019000611126C030953E233C938FBF08952730D0
:1001A000A9F02830C9F0243049F7809180008F7D74
:1001B00003C0809180008F7780938000DFCF84B56B
:1001C0008F7784BDDBCF84B58F7DFBCF8091B0006E
:1001D0008F778093B000D2CF8091B0008F7DF9CF20
:1001E0003E2BDACF3FB7F8948091340190913501DE
:1001F000A0913601B091370126B5A89B05C02F3FCD
:1002000019F00196A11DB11D3FBFBA2FA92F982F3C
:100210008827BC01CD01620F711D811D911D42E037
:10022000660F771F881F991F4A95D1F708958F92FF
:100230009F92AF92BF92CF92DF92EF92FF924B01CB
:100240005C010E94F2006B017C010E94F2006C19BB
:100250007D098E099F09683E734081059105A8F3C9
:1002600021E0821A9108A108B10888EEC80E83E047
:10027000D81EE11CF11C81149104A104B10429F7DA
:10028000FF90EF90DF90CF90BF90AF909F908F90B6
:100290000895FC0180818C3088F462507109660FEA
:1002A000771F2FB7F89490E0FC01EE0FFF1FE80FC7
:1002B000F91FEB5FFE4F728361832FBF0895892B77
:1002C00079F41092800082E0809381001092850082
:1002D00010928400B19A80916F00826080936F00C9
:1002E00008951F920F920FB60F9211242F933F93F0
:1002F0008F939F93AF93BF93809130019091310181
:10030000A0913201B091330130912F0123E0230FEE
:100310002D3758F50196A11DB11D20932F01809313
:10032000300190933101A0933201B0933301809159
:10033000340190913501A0913601B09137010196B9
:10034000A11DB11D8093340190933501A093360116
:10035000B0933701BF91AF919F918F913F912F91B2
:100360000F900FBE0F901F90189526E8230F02964E
:10037000A11DB11DD2CF1F920F920FB60F92112463
:100380002F933F934F935F936F937F938F939F939D
:10039000AF93BF93CF93DF93EF93FF9380910301CC
:1003A000C0910401D0E087FF24C010928500109214
:1003B0008400809103018F5F80930301809103018A
:1003C000082E000C990B8C179D0724F480910301D3
:1003D0008C30C4F180918400909185000496803423
:1003E0009C4908F47AC0809184009091850004961D
:1003F00076C080910301082E000C990B8C179D0785
:10040000C4F6E09103018E2FEE0F990BFC01EE0F65
:10041000FF1FE80FF91FEB5FFE4F808186FFC9CFFA
:10042000E09103018E2FEE0F990BFC01EE0FFF1FE1
:10043000E80FF91FEB5FFE4F808160E08F730E9431
:10044000A600B7CF2091840030918500E091030190
:100450008E2FEE0F990BFC01EE0FFF1FE80FF91F17
:10046000EB5FFE4F81819281820F931F90938900F1
:1004700080938800E09103018E2FEE0F990BFC0111
:10048000EE0FFF1FE80FF91FEB5FFE4F808186FF25
:1004900011C0E09103018E2FEE0F990BFC01EE0FBE
:1004A000FF1FE80FF91FEB5FFE4F808161E08F7344
:1004B0000E94A600FF91EF91DF91CF91BF91AF9184
:1004C0009F918F917F916F915F914F913F912F916C
:1004D0000F900FBE0F901F90189580E49CE99093A9
:1004E0008900809388008FEF80930301E3CFFC01A4
:1004F000909104019C3098F481E0890F809304016D
:100500009083892F90E0FC01EE0FFF1FE80FF91F89
:10051000EB5FFE4F88EB9BE09283818308958FEF22
:1005200080830895789484B5826084BD84B58160A9
:1005300084BD85B5826085BD85B5816085BD8091AE
:100540006E00816080936E00109281008091810026
:10055000826080938100809181008160809381001E
:10056000809180008160809380008091B1008460E0
:100570008093B1008091B00081608093B000809141
:100580007A00846080937A0080917A008260809300
:100590007A0080917A00816080937A0080917A005D
:1005A000806880937A001092C10080912C018C3079
:1005B00008F042C089E00E94870080912C01282F1A
:1005C00030E0F901EE0FFF1FE20FF31FEB5FFE4F6C
:1005D0009081907C9960908310922D0110922E0151
:1005E0002CE0622F0E94CB0390E0829FB001112487
:1005F00030E020E0AB01420F531FFA01EE0FFF1F66
:10060000E40FF51FEB5FFE4F408146FD07C02F5FF3
:100610003F4F2C30310571F70E945F01E0912C01B2
:100620008E2F90E0FC01EE0FFF1FE80FF91FEB5F2C
:10063000FE4F808180648083809129018C3008F096
:1006400042C086E00E94870080912901282F30E077
:10065000F901EE0FFF1FE20FF31FEB5FFE4F9081DA
:10066000907C9660908310922A0110922B012CE0CE
:10067000622F0E94CB0390E0829FB001112430E0F2
:1006800020E0AB01420F531FFA01EE0FFF1FE40FF2
:10069000F51FEB5FFE4F408146FD07C02F5F3F4FC8
:1006A0002C30310571F70E945F01E09129018E2FF6
:1006B00090E0FC01EE0FFF1FE80FF91FEB5FFE4F0C
:1006C0008081806480836CED75E08CE291E00E9413
:1006D00049016CED75E089E291E00E94490168EE04
:1006E00073E080E090E00E94170100E010E0CCEDA4
:1006F000D5E0BE018CE291E00E944901BE0189E291
:1007000091E00E94490164E670E080E090E00E9480
:1007100017012196C03486E0D80759F7BE018CE254
:1007200091E00E944901BE0189E291E00E944901E5
:1007300064E670E080E090E00E9417012197C837DE
:1007400085E0D80759F7BE018CE291E00E9449018B
:10075000BE0189E291E00E94490164E670E080E018
:1007600090E00E9417012196CC3D85E0D80759F70B
:100770000115110509F4BBCF0E940000B8CF8CE22F
:1007800091E00E94770289E291E00E94770280E086
:1007900091E00C947702991B79E004C0991F961799
:1007A00008F0961B881F7A95C9F780950895EE0F7B
:0E07B000FF1F0590F491E02D0994F894FFCFFF
:00000001FF
