:100000000C9463000C948B000C948B000C949A035A
:100010000C949A030C949A030C948B000C948B0010
:100020000C948B000C948B000C948B000C948B0024
:100030000C948B000C948B000C948B000C948B0014
:100040000C94F8020C948B000C9468030C944203FB
:100050000C948B000C948B000C948B000C948B00F4
:100060000C948B000C948B000000000024002700EF
:100070002A0000000008000201000003040700003D
:1000800000000000000000000000230026002900FE
:1000900000000000250028002B00040404040404D0
:1000A0000404020202020202030303030303010227
:1000B00004081020408001020408102001020408F6
:1000C000102012043A0611241FBECFEFD8E0DEBF85
:1000D000CDBF11E0A0E0B1E0E2EDFCE002C0059090
:1000E0000D92A834B107D9F722E0A8E4B1E001C02D
:1000F0001D92A135B207E1F710E0C2E6D0E004C0DE
:100100002197FE010E945606C136D107C9F70E9409
:10011000BD040C945C060C94000090E0FC01EE58C9
:10012000FF4F2491FC01E255FF4F3491FC01E6564C
:10013000FF4FE491EE23C9F0222339F0233001F17F
:10014000A8F4213019F1223029F1F0E0EE0FFF1F61
:10015000E057FF4FA591B4918FB7F894EC916111DE
:1001600026C030953E233C938FBF08952730A9F0D9
:100170002830C9F0243049F7809180008F7D03C07A
:10018000809180008F7780938000DFCF84B58F7758
:1001900084BDDBCF84B58F7DFBCF8091B0008F779E
:1001A0008093B000D2CF8091B0008F7DF9CF3E2BED
:1001B000DACFCF93DF9390E0FC01E255FF4F24911B
:1001C00086569F4FFC0184918823D1F090E0880FE0
:1001D000991FFC01E859FF4FA591B491FC01E0572C
:1001E000FF4FC591D49161110EC09FB7F8948C91C7
:1001F000E22FE0958E238C932881E223E8839FBF32
:10020000DF91CF9108958FB7F894EC91E22BEC93A6
:100210008FBFF6CF3FB7F8948091910190919201F2
:10022000A0919301B091940126B5A89B05C02F3FE2
:1002300019F00196A11DB11D3FBFBA2FA92F982F0C
:100240008827BC01CD01620F711D811D911D42E007
:10025000660F771F881F991F4A95D1F70895AF92AF
:10026000BF92CF92DF92EF92FF920F931F93CF93A3
:10027000DF936C017B018B01040F151FEB015E0105
:10028000AE18BF08C017D10759F06991D601ED919A
:10029000FC910190F081E02DC6010995892B79F739
:1002A000C501DF91CF911F910F91FF90EF90DF90EB
:1002B000CF90BF90AF900895FC01538D448D252FB2
:1002C00030E0842F90E0821B930B541710F0CF96F0
:1002D000089501970895FC01918D828D981761F022
:1002E000A28DAE0FBF2FB11D5D968C91928D9F5F39
:1002F0009F73928F90E008958FEF9FEF0895FC0118
:10030000918D828D981731F0828DE80FF11D858DCA
:1003100090E008958FEF9FEF0895FC01918D228D5D
:10032000892F90E0805C9F4F821B91098F739927E2
:10033000089585E991E00E948D0121E0892B09F45F
:1003400020E0822F089580E090E0892B29F00E9420
:10035000990181110C9400000895FC01A48DA80F4F
:10036000B92FB11DA35ABF4F2C91848D90E00196F7
:100370008F739927848FA689B7892C93A089B18917
:100380008C91837080648C93938D848D981306C0B8
:100390000288F389E02D80818F7D80830895EF921C
:1003A000FF920F931F93CF93DF93EC0181E0888F2F
:1003B0009B8D8C8D98131AC0E889F989808185FFFF
:1003C00015C09FB7F894EE89FF896083E889F989A1
:1003D00080818370806480839FBF81E090E0DF91A3
:1003E000CF911F910F91FF90EF900895F62E0B8DF6
:1003F00010E00F5F1F4F0F731127E02E8C8D8E11B1
:100400000CC00FB607FCFACFE889F989808185FF17
:10041000F5CFCE010E94AD01F1CFEB8DEC0FFD2F9A
:10042000F11DE35AFF4FF0829FB7F8940B8FEA89D2
:10043000FB8980818062CFCFCF93DF93EC01888DE1
:100440008823B9F0AA89BB89E889F9898C9185FD4F
:1004500003C0808186FD0DC00FB607FCF7CF8C91DD
:1004600085FFF2CF808185FFEDCFCE010E94AD01E7
:10047000E9CFDF91CF91089520918A0130918B01CE
:100480002817390771F49091880180918901981794
:1004900041F0E0918801F0E0E85BFE4F808190E060
:1004A00008958FEF9FEF08950895EF92FF920F93B5
:1004B0001F93CF93DF93DC015C96ED90FC905D97EA
:1004C000E114F10479F481E090E013969C938E930B
:1004D000129790E080E0DF91CF911F910F91FF90F4
:1004E000EF9008955196ED91FC91529750968C9112
:1004F0005097982F90950FB75E962C915E97122F7C
:10050000127021FD6095F8942081112319F1282B98
:100510002083E7012197F1F728E0462F50E0308152
:1005200060FF1AC0382B3083E7012197F1F7BA0139
:1005300075956795215089F7112381F08081892372
:1005400080830FBF5C968D919C910197F1F781E0BC
:1005500090E0C1CF2923DCCF3923E5CF9081892BCF
:10056000EFCF20918A0130918B012817390761F470
:10057000809189012091880190E0805C9F4F821BCF
:1005800091098F739927089590E080E00895209154
:100590008A0130918B0128173907B9F490918801AD
:1005A00080918901981789F0E0918801F0E0E85B7B
:1005B000FE4F80812091880130E02F5F3F4F2F73E5
:1005C00033272093880190E008958FEF9FEF0895DF
:1005D00090E080E00895FC0101900020E9F7319758
:1005E000AF01481B590BBC0185E991E00C942F0128
:1005F0001F920F920FB60F9211242F933F938F9358
:100600009F93AF93BF9380918D0190918E01A091A4
:100610008F01B091900130918C0123E0230F2D3791
:1006200058F50196A11DB11D20938C0180938D0179
:1006300090938E01A0938F01B093900180919101CE
:1006400090919201A0919301B09194010196A11D06
:10065000B11D8093910190939201A0939301B09367
:100660009401BF91AF919F918F913F912F910F90E6
:100670000FBE0F901F90189526E8230F0296A11D1C
:10068000B11DD2CF1F920F920FB60F9211242F934C
:100690003F934F935F936F937F938F939F93AF930A
:1006A000BF93EF93FF9385E991E00E94AD01FF9125
:1006B000EF91BF91AF919F918F917F916F915F91DA
:1006C0004F913F912F910F900FBE0F901F90189553
:1006D0001F920F920FB60F9211242F938F939F9317
:1006E000EF93FF93E091A501F091A6018081E09145
:1006F000AB01F091AC0182FD1BC090818091AE01F5
:100700008F5F8F732091AF01821741F0E091AE01AE
:10071000F0E0EB56FE4F958F8093AE01FF91EF9185
:100720009F918F912F910F900FBE0F901F90189552
:100730008081F4CF1F920F920FB60F9211242F9346
:100740003F934F935F936F937F938F939F93AF9359
:10075000BF93EF93FF93E0918A01F0918B01309763
:1007600049F0A685B7858585968D91FF14C09C912B
:100770008923A1F4FF91EF91BF91AF919F918F9148
:100780007F916F915F914F913F912F910F900FBE8D
:100790000F901F9018959C91892361F7A389B489C4
:1007A0009C918589809589238C9386899789019767
:1007B000F1F7608D718DA685B785558538E020E00D
:1007C000CB010197F1F7822F90E095958795282F1F
:1007D0004C91452309F02068315091F7868D81FDB9
:1007E00020958091890190E001968F73992730912F
:1007F0008801381799F0A0918901B0E0A85BBE4F3D
:100800002C9380938901828D938D0197F1F7A389B1
:10081000B4898C919589892B8C93ACCF868D81601E
:10082000868FF1CF109298011092970188EE93E095
:10083000A0E0B0E08093990190939A01A0939B016E
:10084000B0939C0124E031E0309396012093950110
:1008500025EC30E03093A2012093A10124EC30E09C
:100860003093A4012093A30120EC30E03093A60143
:100870002093A50121EC30E03093A8012093A7013B
:1008800022EC30E03093AA012093A90126EC30E05D
:100890003093AC012093AB011092AE011092AF01E6
:1008A0001092B0011092B1011092350210923402F0
:1008B0008093360290933702A0933802B0933902A6
:1008C00086E191E0909333028093320210924902C4
:1008D0001092480210924B0210924A0210924D025E
:1008E00010924C0210924F0210924E0260915002F0
:1008F0006E7F6D7F609350026695617081E068271E
:100900008AE00E948D0061E08AE00E94D900E8EB55
:10091000F0E0E491E0934202E4EAF0E0E491F0E0F8
:10092000EE0FFF1FE057FF4F859194919093440283
:100930008093430260E08BE00E94D90080915002D6
:1009400081FD04C061E08BE00E948D008BE080930C
:100950003E02E9EBF0E0E491E0933F02E5EAF0E0EB
:10096000E491F0E0EE0FFF1FEA57FF4F859194915D
:1009700090934102809340020895789484B58260F8
:1009800084BD84B5816084BD85B5826085BD85B533
:10099000816085BD80916E00816080936E001092B1
:1009A000810080918100826080938100809181002C
:1009B00081608093810080918000816080938000BD
:1009C0008091B10084608093B1008091B00081601B
:1009D0008093B00080917A00846080937A00809147
:1009E0007A00826080937A0080917A00816080939F
:1009F0007A0080917A00806880937A001092C1001A
:100A0000E091A501F091A60182E08083E091A1012F
:100A1000F091A2011082E091A301F091A4018FEC6A
:100A200080831092AD01E091A901F091AA0186E0C6
:100A30008083E091A701F091A8018081806180838B
:100A4000E091A701F091A801808188608083E09106
:100A5000A701F091A801808180688083E091A701BF
:100A6000F091A80180818F7D808310924D021092B9
:100A70004C0210924B0210924A02109249021092BC
:100A800048028DE991E090934F0280934E0290913D
:100A90003E02963108F047C02DEB30E0309349021A
:100AA000209348022BE931E030934B0220934A0215
:100AB0002CE231E030934D0220934C0220916800EB
:100AC00084E0983048F031E09E3008F430E081E076
:100AD00001C0880F3A95EAF7822B809368002DE6D3
:100AE00030E0983050F02BE630E09E3030F02CE6CD
:100AF00030E0963110F030E020E030934602209351
:100B00004502292F30E0983008F070C081E001C024
:100B1000880F9A95EAF78093470280914E02909150
:100B20004F020197F1F780914C0290914D02892B71
:100B300049F1E0918A01F0918B0122E0E233F20762
:100B400009F1309739F0A389B4899C918589809502
:100B500089238C93809150028E7F80935002109253
:100B600089011092880182E392E090938B01809337
:100B70008A01E0914502F0914602808190914702FE
:100B8000892B808384E291E00E94EB0280E391E074
:100B90000E94EB0261E086E00E94D90061E085E0FE
:100BA0000E94D90060E086E00E948D0060E085E050
:100BB0000E948D00C0E0D0E082E392E00E94B1028A
:100BC0001816190604F582E392E00E94C702F82E77
:100BD00083E391E00E94EB026F2D85E991E00E9492
:100BE000CF0180E391E00E94EB02E6CF9E3040F41B
:100BF0002850310981E001C0880F2A95EAF78BCF90
:100C00002E503109F7CF8EE391E00E94EB0280E392
:100C100091E00E94EB020E940A014B015C0184E614
:100C2000C82ED12CE12CF12C0E940A0168197909F7
:100C30008A099B09683E734081059105A8F381E00C
:100C4000C81AD108E108F10828EE820E23E0921EAE
:100C5000A11CB11CC114D104E104F10429F72097AF
:100C600009F4AACF0E949901882309F4A5CF0E9414
:100C70000000A2CF86E191E090933302809332028C
:100C800080918A0190918B018253924071F4E0919E
:100C90004502F09146029081809147028095892318
:100CA000808310928B0110928A010895EE0FFF1F2E
:100CB0000590F491E02D099410E0C2E6D0E004C064
:100CC000FE010E9456062196C336D107C9F7F89453
:020CD000FFCF54
:100CD20000000000CF012F015C011C028D016B019D
:100CE2007F010000000055022F01E8025402B10208
:100CF200C7023C025374617274696E672E2E2E0015
:100D02000D0A0052656365697665643A2000517583
:080D12006965742E2E2E00000D
:00000001FF
