:100000000C9463000C948B000C948B000C945502A0
:100010000C9455020C9455020C948B000C948B009C
:100020000C948B000C948B000C948B000C948B0024
:100030000C948B000C948B000C948B000C948B0014
:100040000C940B020C948B000C948B000C948B0082
:100050000C948B000C948B000C948B000C948B00F4
:100060000C948B000C948B000000000023002600F1
:10007000290000000000240027002A0000000000E2
:10008000250028002B0004040404040404040202D4
:100090000202020203030303030301020408102007
:1000A0004080010204081020010204081020000012
:1000B0000008000201000003040700000000000027
:1000C0000000FA03670411241FBECFEFD8E0DEBFA3
:1000D000CDBF11E0A0E0B1E0ECE2F9E002C0059094
:1000E0000D92A231B107D9F721E0A2E1B1E001C040
:1000F0001D92AF37B207E1F710E0C2E6D0E004C0CE
:100100002197FE010E948304C136D107C9F70E94DE
:10011000CD020C9489040C94000090E0FC01E2559F
:10012000FF4F2491FC01E656FF4F3491FC01EA5742
:10013000FF4FE491EE23C9F0222339F0233001F17F
:10014000A8F4213019F1223029F1F0E0EE0FFF1F61
:10015000E458FF4FA591B4918FB7F894EC916111D9
:1001600026C030953E233C938FBF08952730A9F0D9
:100170002830C9F0243049F7809180008F7D03C07A
:10018000809180008F7780938000DFCF84B58F7758
:1001900084BDDBCF84B58F7DFBCF8091B0008F779E
:1001A0008093B000D2CF8091B0008F7DF9CF3E2BED
:1001B000DACFCF93DF9390E0FC01E656FF4F249116
:1001C0008A579F4FFC0184918823D1F090E0880FDB
:1001D000991FFC01EE58FF4FA591B491FC01E45822
:1001E000FF4FC591D49161110EC09FB7F8948C91C7
:1001F000E22FE0958E238C932881E223E8839FBF32
:10020000DF91CF9108958FB7F894EC91E22BEC93A6
:100210008FBFF6CF3FB7F89480917B0190917C011E
:10022000A0917D01B0917E0126B5A89B05C02F3F0E
:1002300019F00196A11DB11D3FBFBA2FA92F982F0C
:100240008827BC01CD01620F711D811D911D42E007
:10025000660F771F881F991F4A95D1F70895AF92AF
:10026000BF92CF92DF92EF92FF920F931F93CF93A3
:10027000DF936C017B018B01040F151FEB015E0105
:10028000AE18BF08C017D10759F06991D601ED919A
:10029000FC910190F081E02DC6010995892B79F739
:1002A000C501DF91CF911F910F91FF90EF90DF90EB
:1002B000CF90BF90AF900895209154013091550197
:1002C0002817390771F490915201809153019817C2
:1002D00041F0E0915201F0E0EE5EFE4F808190E04F
:1002E00008958FEF9FEF08950895EF92FF920F9377
:1002F0001F93CF93DF93DC015C96ED90FC905D97AC
:10030000E114F10479F481E090E013969C938E93CC
:10031000129790E080E0DF91CF911F910F91FF90B5
:10032000EF9008955196ED91FC91529750968C91D3
:100330005097982F90950FB75E962C915E97122F3D
:10034000127021FD6095F8942081112319F1282B5A
:100350002083E7012197F1F728E0462F50E0308114
:1003600060FF1AC0382B3083E7012197F1F7BA01FB
:1003700075956795215089F7112381F08081892334
:1003800080830FBF5C968D919C910197F1F781E07E
:1003900090E0C1CF2923DCCF3923E5CF9081892B91
:1003A000EFCF20915401309155012817390761F49E
:1003B000809153012091520190E0805C9F4F821BFD
:1003C00091098F739927089590E080E00895209116
:1003D00054013091550128173907B9F49091520111
:1003E00080915301981789F0E0915201F0E0EE5EA0
:1003F000FE4F80812091520130E02F5F3F4F2F73DD
:1004000033272093520190E008958FEF9FEF0895D6
:1004100090E080E008951F920F920FB60F92112482
:100420002F933F938F939F93AF93BF9380917701C7
:1004300090917801A0917901B0917A013091760183
:1004400023E0230F2D3758F50196A11DB11D2093F0
:1004500076018093770190937801A0937901B0930E
:100460007A0180917B0190917C01A0917D01B091F6
:100470007E010196A11DB11D80937B0190937C01AB
:10048000A0937D01B0937E01BF91AF919F918F9119
:100490003F912F910F900FBE0F901F90189526E857
:1004A000230F0296A11DB11DD2CF1F920F920FB63E
:1004B0000F9211242F933F934F935F936F937F93EA
:1004C0008F939F93AF93BF93EF93FF93E09154016A
:1004D000F0915501309749F0A685B7858585968DB1
:1004E00091FF14C09C918923A1F4FF91EF91BF91DA
:1004F000AF919F918F917F916F915F914F913F91BC
:100500002F910F900FBE0F901F9018959C918923EB
:1005100061F7A389B4899C918589809589238C93FF
:10052000868997890197F1F7608D718DA685B785CA
:10053000558538E020E0CB010197F1F7822F90E05C
:1005400095958795282F4C91452309F020683150C7
:1005500091F7868D81FD20958091530190E0019661
:100560008F73992730915201381799F0A091530158
:10057000B0E0AE5EBE4F2C9380935301828D938D7D
:100580000197F1F7A389B4898C919589892B8C9374
:10059000ACCF868D8160868FF1CF789484B58260F0
:1005A00084BD84B5816084BD85B5826085BD85B517
:1005B000816085BD80916E00816080936E00109295
:1005C0008100809181008260809381008091810010
:1005D00081608093810080918000816080938000A1
:1005E0008091B10084608093B1008091B0008160FF
:1005F0008093B00080917A00846080937A0080912B
:100600007A00826080937A0080917A008160809382
:100610007A0080917A00806880937A001092C100FD
:10062000109271011092700110926F0110926E0180
:1006300010926D0110926C018DE991E0909373011D
:100640008093720190916201963108F047C02DEBC2
:1006500030E030936D0120936C012BE931E0309351
:100660006F0120936E012CE231E0309371012093F1
:1006700070012091680084E0983048F031E09E30AD
:1006800008F430E081E001C0880F3A95EAF7822B48
:10069000809368002DE630E0983050F02BE630E093
:1006A0009E3030F02CE630E0963110F030E020E063
:1006B00030936A0120936901292F30E0983008F0C7
:1006C0008CC081E001C0880F9A95EAF780936B0196
:1006D00080917201909173010197F1F780917001FF
:1006E00090917101892B49F1E0915401F0915501EC
:1006F00021E0E635F20709F1309739F0A389B48992
:100700009C918589809589238C93809174018E7F3B
:1007100080937401109253011092520186E591E08A
:100720009093550180935401E0916901F0916A0121
:10073000808190916B01892B808361E083E00E942E
:10074000D90061E08DE00E94D90061E082E00E9462
:10075000D90061E083E00E948D0061E082E00E94A8
:100760008D00D1E000E010E0C09175016C2F8DE0AC
:100770000E948D0064E786E591E00E9475010E9469
:100780000A016B017C0180E9882E99249394A12CA5
:10079000B12C0E940A016C197D098E099F09683EDF
:1007A000734081059105A8F381E0881A9108A1089A
:1007B000B10828EEC20E23E0D21EE11CF11C811408
:1007C0009104A104B10429F7CD27C0937501011547
:1007D000110551F20E940000C7CF9E3040F428500E
:1007E000310981E001C0880F2A95EAF76FCF2E50BA
:1007F0003109F7CF109259011092580188EE93E019
:10080000A0E0B0E080935A0190935B01A0935C015B
:10081000B0935D0184E091E090935701809356017D
:1008200010926D0110926C0110926F0110926E0186
:100830001092710110927001109273011092720166
:10084000609174016E7F6D7F609374016695617035
:1008500081E068278AE00E948D0061E08AE00E94C2
:10086000D900E4EAF0E0E491E0936601E0E9F0E029
:10087000E491F0E0EE0FFF1FE458FF4F8591949153
:10088000909368018093670160E08BE00E94D9003B
:100890008091740181FD04C061E08BE00E948D00B5
:1008A0008BE080936201E5EAF0E0E491E09363017C
:1008B000E1E9F0E0E491F0E0EE0FFF1FE859FF4FAF
:1008C000859194919093650180936401089584E0EB
:1008D00091E090935701809356018091540190913B
:1008E00055018655914071F4E0916901F0916A01DA
:1008F000908180916B0180958923808310925501AE
:10090000109254010895EE0FFF1F0590F491E02D11
:10091000099410E0C2E6D0E004C0FE010E94830406
:0C0920002196C336D107C9F7F894FFCF29
:10092C000000000075012F0108027401D101E701DC
:02093C005C015C
:00000001FF
